:020000040800F2
:1000000010070020C90000080D2B00080D2600086D
:1000100000000000000000000000000000000000E0
:100020000000000000000000000000008B2B000812
:100030000000000000000000892B00088D2B000844
:10004000DB00000800000000DB000008DB00000807
:10005000DB000008DB000008DB000008B507000833
:1000600000000000DB00000879060008DB00000843
:10007000DB000008DB000008DB00000800000000D7
:10008000912C0008DB00000800000000DB000008E5
:10009000DB000008DB000008DB000008DB000008D4
:1000A000DB000008DB000008DB000008DB000008C4
:1000B000DB0000080348854600F0BAF90048004715
:1000C00035340008100700200448804704480047E2
:1000D000FEE7FEE7FEE7FEE7FEE7FEE71D2C000871
:1000E000B500000830B50B4601460020202201244F
:1000F00009E00D46D5409D4205D31D469540491B5C
:100100002546954040191546521E002DF1DC30BDA4
:1001100010B5202A04DB0846203AD040002110BD4B
:100120000B46D340D0402024A21A914008431946E0
:1001300010BDD2B201E00270401C491EFBD27047D4
:100140000022F6E710B513460A4604461946FFF7A3
:10015000F0FF204610BD0000F0B51FB488B00B9929
:100160000998002448400999C00F4900490809919D
:10017000C0070B990090490049080B91099908980C
:10018000A64608431CD00B990A98084318D0099832
:1001900001244000420D4800410D09982405000348
:1001A000000B204309900B980003000B20430B9099
:1001B00050181C494018002201901446104605E0D2
:1001C000002001460DB0F0BD032801DA034600E02F
:1001D00003239C46C11A0AAE0AE05F0008ADED5B3E
:1001E0004F00F75B7D430027AA187C41491C5B1E2A
:1001F0006145F2DD410004AB5A522104120C0A435E
:10020000240C401C0828DFDB0198029000997046FE
:1002100001910090059B049A0799069800F0B5F8A3
:10022000D0E700000DFCFFFFF0B50C465C4085B048
:10023000E40FE40703944C00002664085900944638
:10024000490802460296224321D062460A431ED044
:100250006200570D4A000E032303550D0124024688
:100260002C492405781B1B0B360B401823432643CF
:10027000614600901C46501AB44103D30098401CBC
:10028000009002E0921800985B41002803DA0020F9
:10029000014605B0F0BD002001210905074686464C
:1002A00011E064461D46141BB54106D36546521B3A
:1002B000B341744607430C43A646CD07400849089E
:1002C000284392185B4105460D43EAD11046184376
:1002D00013D06046194650407140084306D060462E
:1002E000101AB34106D20122002306E000220123A6
:1002F000DB0702E00122D243531000987446010547
:10030000381C6141029C039D0019694100F030F8DE
:10031000BFE70000FD0300000EB505490291002172
:1003200000910A460B46019100F02FF803B000BD82
:10033000330400004A0009030123090B1B0519437C
:10034000094B10B5520D9A4201DA002010BD064B40
:1003500034339A4203DC9A1AFFF7DAFE10BD0349E0
:100360005118884010BD0000FF030000CDFBFFFFC7
:1003700010B5002B08DA0024401C614192185B4143
:100380001A4301D14008400010BDF0B51FB482B03F
:1003900005460C0003D0084603F000F802E002F026
:1003A000FDFF2030024600902146284600F052F81A
:1003B000049B059A04460F4618431143084314D082
:1003C000184610431BD0009840210A1A1846059978
:1003D000FFF79EFE05460E46009A0599049800F028
:1003E00039F8084305D0012004E02046394607B01B
:1003F000F0BD0020C11705430E432C43374300993D
:100400000E986305401A7905E40A00220C43FD0AA0
:100410000A3002D500200146E9E7010510196941BB
:100420000C9C0D9D00196941FFF7A2FFDFE700005A
:10043000064C0125064E05E0E36807CC2B430C3C37
:1004400098471034B442F7D3FFF738FED43700088A
:10045000F437000810B5202A04DB0146203A914009
:10046000002010BD914020239C1A0346E34019430D
:10047000904010BD10B50020144908601449086070
:100480001449086014490860144908701449087038
:100490001449087014490870062014490880002087
:1004A000134908800F481349086000228021092061
:1004B000C00600F072FD002202210920C00600F0F3
:1004C0006CFD01200C49087010BD000000000020E8
:1004D00004000020080000200C0000201400002070
:1004E0001600002015000020170000201800002032
:1004F0001A000020200000202400002070B50446CF
:1005000025464E480088002805D04C480088401EEB
:100510004A49088070BD4A48844200D3251AA81071
:100520004849096840184749086047480088401C06
:1005300045490880084600880121890288427BD10C
:1005400000204149088006203C4908803D48006859
:1005500000123E49086000203A49086001203C49E9
:10056000096808703B48007800281DD0012804D095
:10057000022847D003285DD12DE0012280210920E7
:10058000C00600F00AFD002202210920C00600F08A
:1005900004FD2E4800683049086030482C49086046
:1005A00000202C49087046E0002280210920C00666
:1005B00000F0F3FC012202210920C00600F0EDFC4E
:1005C000224800682649086026482149086003201F
:1005D000204908702FE0012280210920C00600F088
:1005E000DCFC012202210920C00600F0D6FC1748DD
:1005F00000681D4908601D4815490860022015491A
:10060000087018E0002280210920C00600F0C5FC17
:10061000002202210920C00600F0BFFC0B48006840
:100620001349086013480A49086001200949087005
:1006300001E001E000BF00BF00BF6BE71800002031
:10064000FFFFFF001C0000201A0000201000002007
:1006500020000020240000200000002014000020C2
:100660000C000020170000200800002016000020C9
:10067000040000201500002010B5024800F0E2FA46
:1006800010BD00005401002010B50446054A216841
:10069000881A1421FFF726FD8000206401480838DD
:1006A000E06310BD0800024010B508213A4800F090
:1006B0006BFC002808D01021374800F065FC0028AA
:1006C00002D00120354908703448007800281FD036
:1006D0000821314800F058FC002819D110212E487B
:1006E00000F052FC002813D12D480078002805D0D6
:1006F00000202A49087001202A49C8702A48007839
:10070000002805D000202549087002202549C8701E
:100710000821214800F038FC2149087010211E48AA
:1007200000F032FC2049087020211B4800F02CFC0E
:1007300000280ED10A2002F066FE2021164800F0A3
:1007400023FC00280CD119480068401C1749086098
:1007500006E0164800681649086000201349086042
:1007600013480068FF21F531884207D2104800681D
:10077000322803D901200B4988700BE00C4800682F
:10078000FF21F531884205D30220064988700020F8
:100790000749086010BD0000000400483600002032
:1007A00034000020300000203500002038000020F8
:1007B0003C0000201CB5304840694021084000281A
:1007C00059D00020009000BF0098411E00910028E1
:1007D000FAD12A4908600C46402027494861072081
:1007E00000F068FD2648006800684021084324495D
:1007F00009680860002022490968C8602049096822
:10080000C8601F490968C86000BF1D48006880684B
:100810000321490208408842F7D119480068C0689E
:1008200081B2019168468088A07015480068C06850
:1008300081B2019168468088607011480068C06884
:1008400081B201916846808820700D480068006878
:10085000402188430A490968086008480068FFF792
:100860004DFE402004494861072000F017FD072095
:1008700000F02CFD00BF1CBD00040140280000203A
:10088000F000002070470000F8B504460D46002631
:100890000020009001210907A06B884215D0A06BB1
:1008A000012812D0A06B02280FD0A06B03280CD017
:1008B000A06B042809D0A06B052806D0A06B0628E1
:1008C00003D0A06B072800D000BF00BF4020005D10
:1008D000012801D10220F8BD01214020015500BFAF
:1008E0002068806804210840800800287BD14449A2
:1008F000686888425BD02068806A2A78012191402C
:1009000008432168886201210907A06B884229D029
:10091000A06B012826D0A06B022823D0A06B03284F
:1009200020D0A06B04281DD0A06B05281AD0A06B86
:10093000062817D0A06B072814D0A8682168496939
:100940004907490F88420DD020684069C008C0009F
:100950002168486120684069297A4907490F08439E
:10096000216848612868102802D0286811283FD1E2
:10097000244880682968102901D1C90401E00121B7
:10098000890508431F4988602868102830D11E490E
:100990001E480068FFF7A6FB0A214843009002E0CA
:1009A0000098401E009000980028F9D120E02068AF
:1009B000806A2A78012191408843216888622868EA
:1009C000102802D02868112812D10E4880682968A2
:1009D000102902D1C90402E005E0012189058843FC
:1009E0000849886004E0606C2021084360640126A7
:1009F00000BF00214020015500BF30466BE70000DA
:100A0000011000000027014040420F00500000206C
:100A100070B5044600260025002C01D1012070BDD0
:100A2000606C002806D1A0640021402001552046BA
:100A300000F0CEF8606C1021084000287ED1002E16
:100A4000FCD1206880680421084080080028F5D186
:100A5000606C8901884302210843606420688068D3
:100A60008007800F01280DD120680068C007C00FE3
:100A7000002805D12068C06889030840884201D158
:100A8000012000E0002000280FD12068C068182154
:100A90008843A16808432168C86020680069800015
:100AA000800861680843216808612068C068464979
:100AB00008402168C860A0698003E169C903084350
:100AC000216A49030843616B012902D0012109030E
:100AD00000E000210843E16808432169022901D1AF
:100AE000042100E000210843216B4900084305432D
:100AF000606A01280ED1206A002803D10120000479
:100B0000054307E0606C202108436064A06C01216C
:100B10000843A064FF21C231A06A884203D0E16A81
:100B2000A06A084305432068C06828432168C8605C
:100B300001210907A06B884216D000E03DE0A06BC0
:100B4000012811D0A06B02280ED0A06B03280BD077
:100B5000A06B042808D0A06B052805D0A06B062840
:100B600002D0A06B07280DD120684069C008C000E2
:100B70002168486120684069218F4907490F08436F
:100B8000216848612068C06810490840A84208D11F
:100B90000020A064606C0221884301210843606446
:100BA00010E0606C02218843102108436064A06C4F
:100BB00001210843A064012604E0606C1021084371
:100BC0006064012630462AE71902FEFFE7FF3F83F3
:100BD00010B586B00446142101A8FFF7B1FA1649F2
:100BE0002068884226D100BF14488069491508430F
:100BF000124988610846806949150840009000BF85
:100C000000BF00BF0D484069490208430B494861D5
:100C100008464069012189040840009000BF00BFD8
:100C200002200190032002900020039001A90448B3
:100C300000F0B2F806B010BD0024014000100240E0
:100C40000004004870B50446E06B0568206806683B
:100C50000420216C8840284000281BD0042030400C
:100C6000002817D02068006820210840002805D1FE
:100C70002068006804218843216808600420216CF2
:100C80008840E16B4860E06A002852D02046E16A63
:100C900088474EE00220216C88402840002823D05D
:100CA0000220304000281FD0206800682021084022
:100CB000002808D1206800680A218843216808605C
:100CC0000121212001550220216C8840E16B486000
:100CD00000BF00212020015500BFA06A002828D0B5
:100CE0002046A16A884724E00820216C88402840DB
:100CF00000281ED00820304000281AD02068006844
:100D00000E218843216808600120216C8840E16B36
:100D100048600120A06301212120015500BF00216E
:100D20002020015500BF206B002802D02046216BF7
:100D3000884770BD70B504460025002C01D1012004
:100D400070BD022121200155206805681148054029
:100D5000A16860680843E168084321690843616944
:100D60000843A1690843E169084305432068056019
:100D70002046FFF789FC0020A062E06220636063E8
:100D8000A0630121212001550021202001550020D0
:100D9000D6E700000FC0FFFF78B50346002200240D
:100DA0000020DEE0012696400D6835402C46002CE0
:100DB0007ED04D68022D02D04D68122D15D1D50878
:100DC000AE001D462035A8595507EE0E0F25B5403B
:100DD0000646AE4330465607F60E0D69B540284329
:100DE000D508AD001E462036705118685600032500
:100DF000B5400646AE4330460D79AD07AD0F5600FF
:100E0000B540284318604D68012D08D04D68022D6B
:100E100005D04D68112D02D04D68122D18D198685B
:100E200056000325B5400646AE4330465600CD6811
:100E3000B540284398605868012595400646AE4362
:100E4000304610264D6835402D099540284358609E
:100E5000D86856000325B5400646AE4330465600D6
:100E60008D68B5402843D860012636074D68354067
:100E7000B54275D100BF3E4DAD69012635433C4EAC
:100E8000B5613546AD69ED07ED0F009500BF00BFB8
:100E9000384D9608B600A85995072E0F0F25B54076
:100EA0000646AE4330460925ED06AB4203D100E0CD
:100EB00056E000250FE0304DAB4201D101250AE09C
:100EC0002E4DAB4201D1022505E02D4DAB4201D1A3
:100ED000032500E005259607360FB5402843254D2C
:100EE0009608B600A851274D28680546A543284610
:100EF000012636044D683540B54202D105462543EA
:100F00002846204D286068680546A54328460126E6
:100F100076044D683540B54202D105462543284642
:100F2000184D6860A8680546A54328460126360581
:100F30004D683540B54202D1054625432846114D3E
:100F4000A860E8680546A5432846012676054D6851
:100F50003540B54202D1054625432846094DE86093
:100F6000521C0D68D540002D00D01BE778BD000055
:100F7000001002400800014000040048000800483A
:100F8000000C004800040140024613690B40002B8E
:100F900001D0012000E000207047002A01D08161CB
:100FA00000E081627047000001480068704700005F
:100FB0002C00002002464120805C20282FD100BF59
:100FC0004020805C012801D102207047012340208D
:100FD000835400BF242341208354106800684008D4
:100FE0004000136818601068006801231B039843D1
:100FF0001368186010680068084313681860106868
:10100000006801231843136818602023412083548B
:1010100000BF00234020835400BF0020D5E70220FA
:10102000D3E710B502460B4600214120805C202802
:101030002ED100BF4020805C012801D1022010BDCC
:1010400001244020845400BF24244120845410688B
:1010500000684008400014682060106801680F2490
:1010600024020846A04301461802014310680160AB
:101070001068006801242043146820602024412067
:10108000845400BF00244020845400BF0020D6E7D1
:101090000220D4E710B50446002C01D1012010BD78
:1010A0004120005D002805D1002140200155204647
:1010B00000F05AF8242141200155206800684008BA
:1010C0004000216808600F21090660688843216894
:1010D0000861206880680121C9038843216888600D
:1010E000E068012806D10121C903A06808432168EE
:1010F000886005E021218902A06808432168886092
:10110000E068022802D180022168486020684068B7
:1011100014490843216848602068C0680121C90358
:1011200088432168C860616920690843A169090290
:1011300008432168C860216AE069084321680860A3
:10114000206800680121084321680860002060646D
:10115000202141200155002020630021422001551B
:1011600000209CE70080000210B586B004461421E0
:1011700001A8FEF7E5FF1A49206888422DD100BF7B
:101180001848406901218904084316494861084606
:101190004069012189040840009000BF00BFC020C1
:1011A000019012200290012003900320049001205E
:1011B000059001A90C48FFF7EFFD00BF0948C06981
:1011C0000121490508430749C8610846C069012152
:1011D00049050840009000BF00BF06B010BD0000E8
:1011E00000540040001002400004004810B50848B8
:1011F0000068401C06490860FFF756FA044800786A
:10120000C006C00E002801D101F01EFA10BD00007A
:101210002C00002010B5064800681021084304493E
:101220000860002000F006F800F018F8002010BD5B
:101230000020024070B5044600F0D0F906467D213A
:10124000C900FEF74FFF054600F0B4FD002221461D
:10125000501E00F047F8002070BD000008B500BF28
:101260000D488069012108430B498861084680695F
:10127000C007C00F009000BF00BF00BF0846C06994
:10128000090408430449C8610846C06909040840C4
:10129000009000BF00BF08BD0010024000BFC206A2
:1012A000D20E01219140024A116000BF7047000038
:1012B00080E200E000BFC206D20E01219140024A46
:1012C000116000BF7047000080E100E000BFC2066F
:1012D000D20E01219140024A116000BF7047000008
:1012E00000E100E070B504460D461646294620464A
:1012F00001F00EFC70BD0000F8B504460026002584
:10130000012109042068084088427AD100274B480F
:10131000C0690903084000280DD100BF4748C069D3
:1013200008434649C8610846C0690904084000905E
:1013300000BF00BF012742480068FF21013108407B
:10134000002816D13E48006808433D490860FFF771
:101350002BFE064606E0FFF727FE801B642801D916
:101360000320F8BD36480068FF21013108400028FD
:10137000F1D03248006A0321090208400546002DD9
:101380002DD060680840A84229D02C48006A8843C4
:1013900005462A48006A01210904084327490862D2
:1013A0000846006A01210904884324490862084666
:1013B0000562E807C00F002811D0FFF7F5FD0646CB
:1013C00007E0FFF7F1FD801B1E49884201D9032089
:1013D000C7E71A48006A022108400028F1D01748E0
:1013E000006A0321090288436168084313490862BF
:1013F000012F05D10846C069090488430F49C86117
:1014000000BF2078C007C00F002807D00B48006B32
:1014100080088000A16808430849086320212068EB
:101420000840202807D10548006B10218843E16857
:10143000084302490863002093E7000000100240BF
:10144000007000408813000070B504460D46002669
:101450005D480068C007C00FA8420ED25A48006815
:101460004008400028435849086008460068C00703
:10147000C00FA84201D0012070BD022120680840A1
:10148000022807D151484068F0218843A1680843E9
:101490004E4948602078C007C00F00285FD06068C0
:1014A000012808D149480068012149040840002862
:1014B00015D10120E0E76068022808D143480068A0
:1014C000012149060840002809D10120D4E73F48FE
:1014D000006802210840002801D10120CCE73B48E8
:1014E0004068800880006168084338494860FFF719
:1014F0005BFD0646606801280FD107E0FFF754FD49
:10150000801B3349884201D90320B5E72F48406842
:101510000C2108400428F1D121E0606802280FD195
:1015200007E0FFF741FD801B2949884201D90320CC
:10153000A2E7264840680C2108400828F1D10EE0B7
:1015400007E0FFF731FD801B2149884201D90320C4
:1015500092E71E4840680C2108400028F1D11A4843
:101560000068C007C00FA8420ED91748006840089D
:10157000400028431449086008460068C007C00FAF
:10158000A84201D0012077E7042120680840042800
:1015900008D10E484068072109028843E1680843E2
:1015A0000A49486000F032F808494968F0221140C1
:1015B0000909084A515CC840074908600020FFF744
:1015C00039FE002058E700000020024000100240D1
:1015D00088130000BC370008500000200148006854
:1015E000704700005000002000B5FFF7F7FF0549E5
:1015F0004968072212021140090A034A515CC84097
:1016000000BD000000100240CC370008F0B589B0E2
:1016100024A001460EC9C06805AC0EC4089025A0E0
:1016200001460EC9C06801AC0EC404900024002716
:101630000025002600200090224844680C2020400D
:10164000002827D0042802D0082822D102E01E4812
:10165000009022E00F2080042040800C05A90E5C41
:101660001848C06A0007000F01A90F5C01200004A0
:10167000204001210904884206D139461248FEF76C
:1016800031FD7043054602E010483546454300955C
:1016900003E000BF0C48009000BF00BF009809B0F5
:1016A000F0BD000002030405060708090A0B0C0D33
:1016B0000E0F10100102030405060708090A0B0C9F
:1016C0000D0E0F100010024000127A0000093D00BC
:1016D000F8B5044600252078C007C00F002871D057
:1016E000F94840680C21084004280BD0F6484068AF
:1016F0000840082812D1F448406801210904084034
:1017000088420BD1F04800680121490408400028B4
:101710006BD06068002868D10120F8BD00BF606808
:10172000012807D1E8480068012109040843E64977
:10173000086031E0606800280ED1E34800680121AC
:1017400009048843E04908600846006801218904CB
:101750008843DD4908601FE0606805280ED1DA483B
:101760000068012189040843D749086008460068D9
:10177000012109040843D44908600DE0D2480068FB
:10178000012109048843D049086008460068012106
:1017900089048843CC49086000BF6068002812D0E3
:1017A000FFF702FC054606E0FFF7FEFB401B64283E
:1017B00001D90320B1E7C448006801214904084069
:1017C0000028F1D011E0FFF7EFFB054606E0FFF738
:1017D000EBFB401B642801D903209EE7BA48006850
:1017E0000121490408400028F1D102212068084065
:1017F000022861D1B44840680C21084000280BD071
:10180000B1484068084008281BD1AF484068012112
:1018100009040840002814D1AB48006802210840A0
:10182000002804D0E068012801D0012075E7A6480F
:101830000068F82188432169C9000843A24908606B
:101840003AE0E068002820D09F4800680121084362
:101850009D490860FFF7A8FB054606E0FFF7A4FBDB
:10186000401B022801D9032057E79748006802214E
:1018700008400028F2D094480068F8218843216984
:10188000C90008439049086016E08F480068400886
:1018900040008D490860FFF787FB054606E0FFF72B
:1018A00083FB401B022801D9032036E786480068E5
:1018B000022108400028F2D10821206808400828A9
:1018C00031D1E069002817D07F48406A01210843E0
:1018D0007D494862FFF768FB054606E0FFF764FBB9
:1018E000401B022801D9032017E77748406A0221EC
:1018F00008400028F2D016E07348406A40084000D3
:1019000071494862FFF750FB054606E0FFF74CFBC4
:10191000401B022801D90320FFE66B48406A0221E0
:1019200008400028F2D1042120680840042871D121
:1019300000266548C0698906084000280DD100BF0F
:101940006148C06908436049C8610846C069090424
:101950000840009000BF00BF01265C480068FF21DE
:1019600001310840002816D15848006808435749FB
:101970000860FFF719FB054606E0FFF715FB401B63
:10198000642801D90320C8E650480068FF210131CE
:1019900008400028F1D000BFA068012806D14A48BD
:1019A000006A01210843484908622BE0A06800282A
:1019B0000CD14548006A4008400043490862084687
:1019C000006A04218843404908621BE0A06805289A
:1019D0000CD13D48006A042108433B49086208468F
:1019E000006A01210843384908620BE03648006A62
:1019F00040084000344908620846006A04218843D0
:101A00003149086200BFA068002813D0FFF7CCFA64
:101A1000054608E029E0FFF7C7FA401B2C49884239
:101A200001D9032079E62848006A022108400028ED
:101A3000F1D011E0FFF7B8FA054607E0FFF7B4FA76
:101A4000401B2349884201D9032066E61E48006AEC
:101A5000022108400028F1D1012E05D11A48C069A1
:101A6000310788431849C86100BF10212068084029
:101A700010285FD1606901282CD11348406B0421E4
:101A80000843114948630846406B012108430E4949
:101A90004863FFF789FA054606E0FFF785FA401B21
:101AA000022801D9032038E60748406B022108408C
:101AB0000028F2D00448406BF8218843A169C9008E
:101AC00008430149486335E00010024000700040BF
:101AD000881300006069401D00280FD14E48406BFC
:101AE000042188434C4948630846406BF8218843E9
:101AF000A169C9000843484948631BE04648406B58
:101B000004210843444948630846406B40084000AC
:101B10004863FFF749FA054606E0FFF745FA401B20
:101B2000022801D90320F8E53B48406B0221084018
:101B30000028F2D1206A00286CD0374840680C2178
:101B40000840082864D0206A022847D1324800683B
:101B500001210906884330490860FFF725FA054648
:101B600006E0FFF721FA401B022801D90320D4E543
:101B7000294800680121490608400028F1D100BF2A
:101B80002548C06A00090001E16A08432249C86289
:101B9000616AA06A0843204949683D2212049143C2
:101BA00008431D49486000BF084600680121090636
:101BB000084319490860FFF7F7F9054606E0FFF703
:101BC000F3F9401B022801D90320A6E5124800685A
:101BD0000121490608400028F1D01BE00E480068AA
:101BE0000121090688430C490860FFF7DDF9054625
:101BF00006E0FFF7D9F9401B022801D903208CE544
:101C0000054800680121490608400028F1D101E09B
:101C1000012082E5002080E50010024070B50446F6
:101C2000002C01D1012070BD606A002800D100BFE6
:101C30000021A1625D20005D002804D15C200155D7
:101C4000204600F059F802215D2001552068006807
:101C5000402188432168086007210902E068884222
:101C600001D9002501E001252D030F210902E068BB
:101C7000884206D007210902E068884201D000218D
:101C8000A162206B002809D107210902E06888427F
:101C900002D90221216301E001212163A16860686A
:101CA0000843216908436169084301225202A1697E
:101CB00011400843E1690843216A0843A16A0843C7
:101CC00021680860A069000C04210840616A08438B
:101CD000616B0843E1680843284321684860206835
:101CE000C069910088432168C861002020660121F5
:101CF0005D200155002096E710B586B004461421FA
:101D000001A8FEF71DFA27492068884247D100BF85
:101D100025488069891408432349886108468069F9
:101D200089140840009000BF00BF00BF1E484069F2
:101D3000490108431C49486108464069012149049A
:101D40000840009000BF00BF602001900220029078
:101D500000200390032004900020059001A9092091
:101D6000C006FFF719F811481149086000204860C3
:101D700000210F4881608021C16000210161416123
:101D8000816101210903C161FEF7D4FF002801D060
:101D9000FEF778FD00BF0648A065446200BF06B0AC
:101DA00010BD000000300140001002401C00024045
:101DB0005401002070B504462546681E0949884232
:101DC00001D901200CE0681E074948610321081F62
:101DD00000F09EFE00200449886107200861002071
:101DE00070BD0000FFFFFF0000E000E0704770479B
:101DF000024600BF3C20805C012801D102207047D0
:101E000001233C20835400BF02233D2083541068EB
:101E100040687023984313685860106840680B68E6
:101E200018431368586010688068802398431368CB
:101E30009860106880684B681843136898600123A5
:101E40003D20835400BF00233C20835400BF00206A
:101E5000D5E710B50446002C01D1012010BD3D206E
:101E6000005D002805D100213C200155204600F0EE
:101E70000DF802213D200155211D206800F010FFC2
:101E800001213D2001550020E8E7000008B5094A7E
:101E9000016891420DD100BF0749C96992151143EC
:101EA000054AD1611146C96992151140009100BFE0
:101EB00000BF08BD00200040001002400146022281
:101EC0003D20425408680068012210430A681060EF
:101ED00001223D20425400207047704710B504464F
:101EE0002068006902210840400800281CD02068B2
:101EF000C06808404008002816D0481F21680861C3
:101F000001202077206880698007800F002803D097
:101F10002046FFF7E2FF05E0204600F02CF92046BE
:101F200000F00EFA002020772068006904210840A4
:101F3000800800281DD02068C0680840800800285C
:101F400017D0C84321680861022020772068806983
:101F5000032109020840002803D02046FFF7BDFFF7
:101F600005E0204600F007F9204600F0E9F90020DE
:101F700020772068006908210840C00800281CD08C
:101F80002068C0680840C008002816D0C8432168EF
:101F90000861042020772068C0698007800F00282E
:101FA00003D02046FFF799FF05E0204600F0E3F854
:101FB000204600F0C5F90020207720680069102134
:101FC0000840000900281DD02068C06808400009AA
:101FD000002817D0C84321680861082020772068AE
:101FE000C069032109020840002803D02046FFF7FA
:101FF00074FF05E0204600F0BEF8204600F0A0F98E
:102000000020207720680069C007C00F01214840E8
:10201000484000280CD02068C0680840484048402C
:10202000002805D0C81E21680861204600F0BEF9CE
:102030002068006980210840C00900280BD0206872
:10204000C0680840C009002805D0C843216808615D
:102050002046FFF7CBFE2068006940210840800938
:1020600000280BD02068C06808408009002805D0EF
:10207000C84321680861204600F099F9206800698A
:1020800020210840400900280BD02068C068084083
:102090004009002805D0C843216808612046FFF7A1
:1020A000A6FE10BD10B586B00446142101A8FEF7A7
:1020B00047F81149206888421CD100BF0F48406989
:1020C000090108430D494861084640690121490456
:1020D0000840009000BF00BF102001900220029035
:1020E0000020039004900420059001A90920C00657
:1020F000FEF752FE06B010BD002000400010024066
:1021000070B504460E46154600BF3C20005D012810
:1021100001D1022070BD01213C20015500BF0221E8
:102120003D200155002D06D0042D09D0082D0CD0DE
:102130000C2D14D10EE03146206800F00FFE0FE0A8
:102140003146206800F064FE0AE03146206800F065
:10215000C3FE05E03146206800F020FF00E000BF2C
:1021600000BF01213D20015500BF00213C20015549
:1021700000BF0020CEE7704710B50446002C01D107
:10218000012010BD3D20005D002805D100213C202C
:102190000155204600F00CF802213D200155211D7B
:1021A000206800F07DFD01213D2001550020E8E779
:1021B00038B504460D492068884215D100BF0C4847
:1021C000C069022108430A49C8610846C069022162
:1021D0000840009000BF00BF002211461020FFF70A
:1021E00081F81020FFF772F838BD000000040040AD
:1021F0000010024070B504460D46164600BF3C2054
:10220000005D012801D1022070BD01213C20015553
:1022100000BF02213D200155002E06D0042E1BD008
:10222000082E33D00C2E62D147E02946206800F0FA
:1022300095FD20688069082108432168886120682D
:102240008069042188432168886120688069296940
:102250000843216888614BE02946206800F0D8FDDA
:10226000206880690121C9020843216888612068CB
:10227000806901218902884321688861206880691A
:102280002969090208432168886131E029462068EC
:1022900000F022FE2068C069082108432168C86157
:1022A0002068C069042188432168C8612068C0692A
:1022B000296908432168C8611AE02946206800F0AE
:1022C0006DFE2068C0690121C90208432168C86108
:1022D0002068C0690121890288432168C86120689B
:1022E000C0692969090208432168C86100E000BF8C
:1022F00000BF01213D20015500BF00213C200155B8
:1023000000BF002080E710B50446002C01D1012059
:1023100010BD3D20005D002805D100213C20015565
:10232000204600F00CF802213D200155211D2068B7
:1023300000F0B6FC01213D2001550020E8E7704780
:102340007047000030B504460D460122294620683A
:1023500000F0F6FC1149206888420BD01049206833
:10236000884207D00F492068884203D00E49206870
:10237000884201D1012000E00020002806D020681A
:10238000406C0121C9030843216848642068006843
:102390000121084321680860002030BD002C014065
:1023A0000040014000440140004801407047704730
:1023B00010B50446002C01D1012010BDA0690028F1
:1023C00000D000E000BF6920005D002805D1002199
:1023D00068200155204600F02DF824216920015580
:1023E000206800684008400021680860204600F02E
:1023F000A1FE012800D1E0E7606A002802D0204653
:1024000000F010FE206840680121C902884321685D
:1024100048602068806808218843216888602068B7
:1024200000680121084321680860204600F072FE20
:10243000C3E7000010B586B00446142101A8FDF7DB
:102440007FFE3349206888422FD100BF3148806920
:102450000121890308432F498861084680690121C9
:1024600089030840009000BF00BF00BF29484069B1
:10247000C9000843274948610846406901214904C9
:102480000840009000BF00BF0320400201900220DE
:10249000029000200390032004900120059001A9E0
:1024A0000920C006FEF778FC30E01B49206888420E
:1024B0002CD100BF1748C0690121490408431549C0
:1024C000C8610846C069012149040840009000BF66
:1024D00000BF00BF0F48406908430E4948610846E5
:1024E0004069012149040840009000BF00BF0C2052
:1024F000019002200290002003900320049001200C
:10250000059001A90920C006FEF746FC06B010BDE3
:10251000003801400010024000440040FEB504466F
:102520000D4616461F46002001906920005D2028B8
:102530006AD1002D01D0002E01D10120FEBD012164
:102540000903A068884208D12069002805D1E8075E
:10255000C00F002801D00120F0E700BF6820005D17
:10256000012801D10220E9E701216820015500BFBF
:102570000020E066212169200155FEF715FD01903C
:10258000502006535220065325E05220005B401E87
:1025900081B2522001530097002280212046019BE6
:1025A00000F0BAFE002801D00320C7E7012109038B
:1025B000A06888420BD12069002808D10295029DAD
:1025C0002888C005C00D21680885AD1C03E0287867
:1025D0006D1C216808855220005B0028D5DC00971F
:1025E000002240212046019B00F096FE002801D0E9
:1025F0000320A3E720216920015500BF00216820A6
:10260000015500BF002099E7022097E700BFFEE7D1
:1026100000B585B0C02000900120019000200290FC
:102620000320039069460748FEF7B6FB01224021CC
:102630000448FEF7B2FC012280210248FEF7ADFCFF
:1026400005B000BD0004004810B501214903304821
:10265000FEF79AFC00280FD10A2000F0D4FE0121D9
:1026600049032B48FEF790FC00280CD1294800684C
:10267000401C2849086006E0264800682649086092
:10268000002024490860012189032148FEF77CFCD1
:1026900000280FD10A2000F0B6FE012189031C4852
:1026A000FEF772FC00280CD11C480068401C1B4936
:1026B000086006E0194800681949086000201749B9
:1026C0000860154800680F2807D2134800680228E0
:1026D00003D901201349087006E00F4800680F284D
:1026E00002D302200F4908700D4800680F2807D256
:1026F0000B480068022803D901200A49487006E007
:10270000074800680F2802D302200649487010BD10
:10271000000800484000002048000020440000203D
:102720004C000020300000200EB5002000900190E9
:102730000290184818490860002048600021164897
:102740008160C16001210161042141610021816139
:10275000C16101624162FF21C23181620021C16217
:10276000016301214163FEF753F9002801D0FEF710
:1027700089F80920009001200003019000040290D4
:1027800069460548FEF780F8002801D0FEF77AF880
:102790000EBD0000002401405800002008B500BF15
:1027A0000A484069012108430849486108464069D0
:1027B000C007C00F009000BF00BF002211460A20D2
:1027C000FEF790FD0A20FEF781FD08BD00100240D3
:1027D00000B587B0142102A8FDF7B2FC00BF4A483B
:1027E00040690121C90408434749486108464069D6
:1027F0000121C9040840019000BF00BF00BF42484A
:102800004069C900084340494861084640690121C0
:1028100089050840019000BF00BF00BF3A484069E9
:102820004911084338494861084640690121490473
:102830000840019000BF00BF00BF33484069490015
:10284000084331494861084640690121890408402C
:10285000019000BF00BF0022C9102C48FEF79DFB6D
:1028600000222B490920C006FEF797FB00222949C8
:102870002948FEF792FB0022C0212848FEF78DFB75
:1028800003204003029000200390049002A91F48F7
:10289000FEF782FA0120C00302900120039000207D
:1028A0000490059002A91948FEF776FA184802909C
:1028B0000120039000200490059002A90920C00681
:1028C000FEF76AFA1348029001200390002004905A
:1028D000059002A91048FEF75FFAC020029001207F
:1028E000039000200490059002A90C48FEF754FACA
:1028F0003820029000200390049002A90648FEF7B9
:102900004BFA07B000BD000000100240000800486C
:102910008319000005FF000000040048001400486F
:1029200010B5134813490860134848600021114846
:1029300081600121C1600021016141618161C1614A
:102940000162FEF7A7FB002801D0FDF79BFF0021E5
:102950000848FEF72FFB002801D0FDF793FF002168
:102960000448FEF75EFB002801D0FDF78BFF10BD89
:1029700000540040A40000200E09002010B51348A8
:1029800013490860FF200530486001218902104882
:10299000816007210902C1600021016141610121BB
:1029A000490281610821C1610021016241628162A5
:1029B0000721C1620021016308214163FFF72EF95D
:1029C000002801D0FDF75EFF10BD0000003001407F
:1029D000F000002000B587B01C216846FDF7B0FB71
:1029E0001748184908600020486000211548816098
:1029F0000521C160002101618161FFF72AFA0028E9
:102A000001D0FDF73FFF0F48FFF77DFC002801D004
:102A1000FDF738FF60200090032001900020029015
:102A20000490002269460748FFF7E4FB002801D024
:102A3000FDF728FF0348FFF735FB07B000BD000096
:102A400000200040D801002000B589B00020079088
:102A500008901C216846FDF773FB18481849086068
:102A6000002048600021164881601649C16000219D
:102A700001618161FFF780FB002801D0FDF702FFB3
:102A800000200790089007A90D48FFF7B1F900282A
:102A900001D0FDF7F7FE00200090142001900020E7
:102AA00002900490002269460548FFF729FB0028A0
:102AB00001D0FDF7E7FE09B000BD000000040040B2
:102AC0009801002060EA000010B50E480E49086029
:102AD000E1204002486000210B488160C160016133
:102AE0000C21416100218161C16101620020064920
:102AF00048620846FFF75CFC002801D0FDF7C2FEE3
:102B000010BD00000038014018020020704700008E
:102B100010B5002819DA1A4A03071B0F083B9B0857
:102B20009B00D2588307DC0EFF23A3409A438B07F8
:102B30001B0E8407E40EA3401A43114B0407240F15
:102B4000083CA408A4001A5118E00E4A03231B02F3
:102B5000D21883089B00D2588307DC0EFF23A340C2
:102B60009A438B071B0E8407E40EA3401A43054BC0
:102B7000032424021B198408A4001A5110BD00006C
:102B80001CED00E000E100E07047704710B5FEF773
:102B90002DFB10BD00B595B0302109A8FDF7D0FA86
:102BA00000200590069007900890019002900390F5
:102BB00004901320099001200A900C900E90102090
:102BC0000D900F9002201190C1031291C104139136
:102BD0000021149109A8FEF77BFD002801D0FDF724
:102BE00051FE0720059002200690002007900890D3
:102BF000012105A8FEF728FC002801D0FDF742FEC0
:102C00002120019000200390049001A8FEF774FB9E
:102C1000002801D0FDF736FE15B000BD1948006848
:102C200001210843174908600846406816490840D2
:102C30001449486008460068144908401149086072
:102C4000084600680121890488430E490860084647
:102C500040683F21090488430A4948600846C06A21
:102C600000090001C8620846006BFF211431884347
:102C7000044908630846406B400840004863002050
:102C800088607047001002400CB8FF08FFFFF6FE96
:102C900010B50248FFF722F910BD0000980100208E
:102CA00010B500220268204B984202D01F4B984278
:102CB00005D170241346A3431A464B681A431A4B96
:102CC00098420ED0194B98420BD0194B984208D01D
:102CD000184B984205D0184B984202D0174B984297
:102CE00006D1032424021346A3431A46CB681A4391
:102CF00080241346A3434C6923431A4602608B6821
:102D0000C3620B688362084B984208D0094B984213
:102D100005D0094B984202D0084B984201D10B696B
:102D200003630123436110BD002C014000040040F7
:102D300000200040004001400044014000480140A4
:102D400030B5002301248C402346046A9C4304626E
:102D5000046A15468D402C43046230BD70B50024D2
:102D600000220023056A6D086D000562026A43684F
:102D7000846970262546B5432C46A408A4000D6836
:102D80002C4302261546B5432A468D682A431C4D1E
:102D9000A84200D10BE01B4DA84200D107E01A4D1C
:102DA000A84200D103E0194DA8420AD100BF08266D
:102DB0001546B5432A46CD682A4304261546B54331
:102DC0002A460F4DA84208D00E4DA84205D00E4D00
:102DD000A84202D00D4DA8420CD1FF2601361D4657
:102DE000B5432B4676001D46B5432B464D692B4314
:102DF0008D692B43436084614D684563026270BDF9
:102E0000002C0140004001400044014000480140C6
:102E100070B5002400220023056A1026B543056220
:102E2000026A43688469072636032546B5432C4663
:102E3000032636022546B5432C460D682D022C4349
:102E400020261546B5432A468D682D012A431E4D7E
:102E5000A84200D10BE01D4DA84200D100BF1C4D7F
:102E6000A84200D100BF1B4DA8420BD10AE080262A
:102E70001546B5432A46CD682D012A4340261546FE
:102E8000B5432A46104DA84208D0104DA84205D09F
:102E90000F4DA84202D00F4DA8420ED10126B60216
:102EA0001D46B5432B4676001D46B5432B464D695E
:102EB000AD002B438D69AD002B43436084614D68A9
:102EC0008563026270BD0000002C0140004001409B
:102ED000004401400048014070B500240022002356
:102EE000056AFF260136B5430562026A4368C46974
:102EF00070262546B5432C46A408A4000D682C4333
:102F0000012676021546B5432A468D682D022A43CE
:102F10001E4DA84200D10BE01D4DA84200D100BFBC
:102F20001C4DA84200D100BF1B4DA8420CD10BE0A4
:102F30000126F6021546B5432A46CD682D022A43DE
:102F400076101546B5432A46104DA84208D0104DBC
:102F5000A84205D00F4DA84202D00F4DA8420ED175
:102F6000012636031D46B5432B4676001D46B54364
:102F70002B464D692D012B438D692D012B43436059
:102F8000C4614D68C563026270BD0000002C014041
:102F900000400140004401400048014070B500225B
:102FA00000230024056A01263603B5430562036A3F
:102FB0004468C269072636031546B5432A460326E8
:102FC00036021546B5432A460D682D022A430126CE
:102FD00076031D46B5432B468D682D032B430D4DBF
:102FE000A84208D00C4DA84205D00C4DA84202D0F2
:102FF0000B4DA84207D10126B6032546B5432C4602
:103000004D69AD012C434460C2614D6805640362A3
:1030100070BD0000002C0140004001400044014010
:1030200000480140818CC907C90F002908D00168F8
:103030004968012252049143826A11430268516037
:103040000222416A1140002907D001684968D20371
:103050009143C26A1143026851600422416A1140DF
:10306000002907D00168496812049143026B11439B
:10307000026851600822416A1140002907D00168A6
:10308000496812039143426B114302685160102258
:10309000416A1140002907D00168896812029143F2
:1030A000826B1143026891602022416A114000291D
:1030B00007D00168896812029143C26B114302680C
:1030C00091604022416A1140002915D00168496889
:1030D00092039143026C1143026851600122120570
:1030E000016C914208D1016849680322520591435D
:1030F000426C1143026851608022416A11400029EC
:1031000007D00168496812039143826C1143026839
:103110005160704701460020C86620226920425451
:103120006A20425400BF00226820425400BF0020A1
:1031300070470000FEB50446002510260027002039
:10314000029001902169A068084361690843E16920
:1031500008430546206800686849084028432168FC
:10316000086020684068032109038843E168084338
:1031700021684860216AA069084305462068806884
:103180000B210902884328432168886000BF5C49FD
:103190002068884217D15B48006B8007800F0028A9
:1031A00006D0012808D0022808D0032808D101E061
:1031B000002607E0022605E0042603E0082601E0D9
:1031C000102600BF06E050492068884201D1002641
:1031D00000E0102600BF0121C903E069884249D1FF
:1031E000042E20D004DC002E07D0022E32D111E0B4
:1031F000082E25D0102E2DD12DE0FEF7F5F9400038
:1032000061684908401800906168FCF76BFF80B264
:10321000029023E061684A083C4BD018FCF762FF3B
:1032200080B202901AE0FEF7F1F9400061684908A7
:10323000401800906168FCF755FF80B202900DE0E5
:1032400061684A0801231B04D018FCF74BFF80B2C9
:10325000029003E000BF0120019000BF00BF2C4995
:1032600002980840074602980007400F074320686D
:10327000C76040E0042E21D004DC002E07D0022ECF
:1032800034D111E0082E26D0102E2FD12FE0FEF7DA
:10329000ABF961684908401800906168FCF722FFAB
:1032A00080B22168C86025E061684A08194BD018CF
:1032B000FCF718FF80B22168C8601BE0FEF7A6F992
:1032C00061684908401800906168FCF70BFF80B204
:1032D0002168C8600EE061684A080123DB03D0184A
:1032E000FCF700FF80B22168C86003E000BF012046
:1032F000019000BF00BF0198FEBD0000F369FFFF11
:103300000038014000100240004400400024F40056
:10331000F0FF000000127A00FFB581B004460D46B0
:1033200017460A9E24E0701C002821D0002E05D0EC
:10333000FDF73AFE0499401AB04219D92068006896
:10334000FF21A13188432168086020688068400817
:103350004000216888602021692001556A200155BC
:1033600000BF00216820015500BF032005B0F0BD5B
:103370002068C0692840A84201D1012000E0002057
:10338000B842D0D00020F1E710B5024A024900F05F
:103390002BF810BD19340008540000202021020C25
:1033A00001D010211046020A01D010460839020946
:1033B00001D01046091F820801D01046891E42081C
:1033C00001D0881E7047081A704702E008C8121F13
:1033D00008C1002AFAD170477047002001E001C1FE
:1033E000121F002AFBD17047F8B516460F46044657
:1033F000002503E03946B047641C6D1C2078002886
:10340000F8D12846F8BD08B5009000BF0146401E1F
:103410000029FBD108BD000013B50C46034B012267
:1034200069460348FFF77AF800981CBDFFFF0000CB
:103430001802002086B0FDF7EDFEFFF7ABFBFFF7AB
:10344000C7F9FFF7ABF9FFF76FF9FFF769FAFFF775
:1034500095FAFFF7BFFAFFF737FBFFF7F5FA61A020
:10346000FFF792FF6148FEF729FD00215F48FEF754
:1034700069FF60205E490860022048600020886083
:103480000320C860142101A8FCF75AFE40200190D7
:1034900000200590574802900020039001A90920C0
:1034A000C006FDF779FC0220029001A90920C006A0
:1034B000FDF772FCFCF7DEFF002211460720FDF746
:1034C00011FF0720FDF702FF042001900120029068
:1034D0000020039001A90920C006FDF75DFCC02073
:1034E0000190012002900020039001A94248FDF7BD
:1034F00053FC0121414800F0CDF8FFF789F800BFE7
:1035000038A0FFF741FF6BE03D480078002802D06B
:1035100000203B4908703B480078002802D000207A
:103520003849087038480078002802D00020364911
:10353000087036480078002802D00020334908700F
:1035400033480078012805D100203149087031A0A6
:10355000FFF71AFF2E480078022805D100202C49D9
:10356000087030A0FFF710FF29484078012805D1E6
:103570000020274948702FA0FFF706FF2448407815
:10358000022805D10020224948702EA0FFF7FCFE3A
:103590001F48C078022805D100201D49C8702DA001
:1035A000FFF7F2FE1A48C078012805D1002018491B
:1035B000C8702BA0FFF7E8FE15488078012805D1D8
:1035C00000201349887029A0FFF7DEFE104880789C
:1035D000022805D100200E49887029A0FFF7D4FEEB
:1035E00092E7000068656C6C6F0A0000D80100204B
:1035F000F80200200000211000040048888A010021
:1036000015000020140000201700002016000020E4
:1036100030000020434831206B657920646F776E5D
:103620000A000000434831206B657920686F6C64A4
:103630000A000000434832206B657920646F776E82
:103640000A000000434832206B657920686F6C6483
:103650000A000000436F646572207375622E0A00D1
:10366000436F646572206164642E0A00436F646571
:1036700072206B657920646F776E2E0A000000005F
:10368000436F646572206B657920686F6C642E0AE5
:1036900000000000F0B589B004460D460027002068
:1036A0000790002D03D107270820079002E0052787
:1036B000062007907D21C9002046FCF713FD0E4629
:1036C000A01B7D21C900FCF70DFD80B2069030469D
:1036D000FCF722FE0022174B01910090FCF7A4FD9D
:1036E0000022154B03910290FCF736FD05910490E2
:1036F000FCF720FE86B20698FCF70EFE00220D4B6A
:1037000001910090FCF790FD00220B4B0391029079
:10371000FCF722FD05910490FCF70CFE80B20690A8
:103720003946069800F00AF83046079900F006F886
:1037300009B0F0BD00388F4000F88F40F8B505465D
:103740000E46A804040C2405240D3003204384B243
:103750000022FF2101311848FDF71FFC0022012142
:103760001548FDF71AFC00271EE00120C003204089
:10377000002805D0012251020F48FDF70EFC05E09C
:103780000022012149020C48FDF707FC0122110229
:103790000948FDF702FC0022FF2101310648FDF730
:1037A000FCFB6004040C7F1C102FDEDB01221146A1
:1037B0000148FDF7F2FBF8BD0004004800000000DE
:1037C00000000000010203040607080900000000D1
:1037D00001020304F4370008000000205800000034
:1037E000CA3300084C38000858000020B806000012
:1037F000DA330008000000000000000000000000B4
:1038000000000000000000000000000000000000B8
:1038100000000000000000000000000000000000A8
:103820000000000000000000000000000000000098
:103830000000000000000000000000000000000088
:0C3840000000000000127A0000000000F0
:04000005080000B53A
:00000001FF
